:100000000C9434000C943E000C943E000C943E0082
:100010000C943E000C943E000C943E000C943E0068
:100020000C943E000C943E000C943E000C943E0058
:100030000C943E000C943E000C943E000C943E0048
:100040000C943E000C943E000C943E000C943E0038
:100050000C943E000C943E000C943E000C943E0028
:100060000C943E000C943E0011241FBECFEFD8E04C
:10007000DEBFCDBF0E94D6000C944C010C94000052
:1000800096B181E08927817090E0089586B18695C8
:1000900091E08927817090E0089586B186958695D4
:1000A00091E08927817090E0089586B186958695C4
:1000B000869591E08927817090E0089586B18295B8
:1000C0008F7091E08927817090E00895FC019C0178
:1000D0002A5F3F4F819191918130910541F08230AB
:1000E000910541F0892B41F485B115B805C088B15F
:1000F00018B802C08BB11BB8E217F30759F708957F
:100100008130910571F082309105A1F0892BD1F4F5
:1001100085B102C0440F551F6A95E2F7482B45B9D7
:10012000089588B102C0440F551F6A95E2F7482B25
:1001300048B908958BB102C0440F551F6A95E2F784
:10014000482B4BB90895CF92DF92EF92FF920F9315
:100150001F93CF93DF93EC016B017A0189018FE349
:100160009FE10197F1F700C00000CE010E946600F8
:100170006E817F81A601888199810E9480006885B7
:100180007985A7018A819B810E9480006A857B8591
:10019000A8018C819D810E948000DF91CF911F91E9
:1001A0000F91FF90EF90DF90CF900895CF93DF9362
:1001B000CDB7DEB72C970FB6F894DEBF0FBECDBF1C
:1001C0008EE084B91A8219821C821B821E821D82D3
:1001D00081E090E098878F8382E090E09A8789871A
:1001E00083E090E09C878B8787B117B80E9440001E
:1001F000892B59F021E030E040E050E061E070E010
:10020000CE0101960E94A300F1CF0E944600892BE7
:1002100059F021E030E041E050E060E070E0CE01D4
:1002200001960E94A300E2CF0E944D00892B59F055
:1002300020E030E041E050E061E070E0CE01019666
:100240000E94A300D3CF0E945500892B59F021E0D2
:1002500030E040E050E060E070E0CE0101960E94A6
:10026000A300C4CF0E945E00892B59F020E030E04B
:1002700041E050E060E070E0CE0101960E94A300F2
:10028000B5CF20E030E040E050E060E070E0CE012B
:0C02900001960E94A300AACFF894FFCFB3
:00000001FF
