S0120000426174746C65736869702E7372656302
S11300000C9434000C9449000C9449000C9449005D
S11300100C9449000C9449000C9449000C94490038
S11300200C9449000C9449000C9449000C94490028
S11300300C9449000C9449000C9449000C94490018
S11300400C9449000C9449000C9449000C94490008
S11300500C9449000C9449000C9449000C944900F8
S11300600C9449000C94490011241FBECFEFD8E032
S1130070DEBFCDBF11E0A0E0B1E0E4E2F3E002C0F6
S113008005900D92A230B107D9F70E9416010C9485
S113009090010C94000096B181E08927817090E072
S11300A0089586B1869591E08927817090E008953E
S11300B086B18695869591E08927817090E00895B0
S11300C086B186958695869591E08927817090E022
S11300D0089586B182958F7091E08927817090E0B0
S11300E00895CF93DF93EC010E944B00892B19F004
S11300F01982188228C00E945100892B29F081E0BE
S113010090E0998388831FC00E945800892B29F0AE
S113011082E090E09983888316C00E946000892B56
S113012029F083E090E0998388830DC00E946900E0
S1130130892B29F084E090E09983888304C085E0CA
S113014090E099838883DF91CF910895FC019C010D
S11301502A5F3F4F819191918130910541F0823026
S1130160910541F0892B41F485B115B805C088B1DA
S113017018B802C08BB11BB8E217F30759F70895FA
S11301808130910571F082309105A1F0892BD1F471
S113019085B102C0440F551F6A95E2F7482B45B953
S11301A0089588B102C0440F551F6A95E2F7482BA1
S11301B048B908958BB102C0440F551F6A95E2F700
S11301C0482B4BB90895CF92DF92EF92FF920F9391
S11301D01F93CF93DF93EC016B017A0189018FE3C5
S11301E09FE10197F1F700C00000CE010E94A60034
S11301F06E817F81A601888199810E94C0006885F3
S11302007985A7018A819B810E94C0006A857B85CC
S1130210A8018C819D810E94C000DF91CF911F9124
S11302200F91FF90EF90DF90CF900895CF93DF93DD
S1130230CDB7DEB72C970FB6F894DEBF0FBECDBF97
S11302408EE084B91A8219821C821B821E821D824E
S113025081E090E098878F8382E090E09A87898795
S113026083E090E09C878B8787B117B880E091E0AA
S11302700E947100809100019091010182309105EA
S113028019F12CF4009751F0019799F0EFCF8430D5
S1130290910581F124F10597C1F1E8CF21E030E027
S11302A040E050E061E070E0CE0101960E94E3007E
S11302B0DDCF21E030E041E050E060E070E0CE01CD
S11302C001960E94E300D2CF20E030E041E050E00C
S11302D061E070E0CE0101960E94E300C7CF21E007
S11302E030E040E050E060E070E0CE0101960E9412
S11302F0E300BCCF20E030E041E050E060E070E09B
S1130300CE0101960E94E300B1CF20E030E040E04E
S113031050E060E070E0CE0101960E94E300A6CFB9
S1070320F894FFCF7B
S10503240500CE
S9030000FC
