S0120000426174746C65736869702E7372656302
S11300000C9434000C9451000C9451000C94510045
S11300100C9451000C9451000C9451000C94510018
S11300200C9451000C9451000C9451000C94510008
S11300300C9451000C9451000C9451000C945100F8
S11300400C9451000C9451000C9451000C945100E8
S11300500C9451000C9451000C9451000C945100D8
S11300600C9451000C94510011241FBECFEFD8E022
S1130070DEBFCDBF11E0A0E0B1E0E8ECF7E002C0E4
S113008005900D92A63BB107D9F721E0A6EBB1E0AC
S113009001C01D92AA3BB207E1F70E948F010C94A4
S11300A0E2030C9400008130910561F082309105E7
S11300B081F0892BA1F402C0440F551F6A95E2F721
S11300C045B9089502C0440F551F6A95E2F748B92F
S11300D0089502C0440F551F6A95E2F74BB908957D
S11300E016161706180619064CF425E02A95F1F79A
S11300F000006150710981099109B9F70895161634
S11301001706180619067CF4E7ECF0E03197F1F7CE
S113011000C000006253710981099109161617067F
S1130120180619068CF308952F923F924F925F920E
S11301306F927F928F929F92AF92BF92CF92DF92F3
S1130140EF92FF920F931F93CF93DF936A017B018A
S1130150222E9C01990F440B550B60E472E48FE04E
S113016090E00E942F0229013A0149015A01A8EEA8
S1130170B3E0A70196010E944E02A3019201220F4F
S1130180331F441F551F0E942F0229013A011216E2
S11301901306140615060CF044C0C0E0D0E0312C60
S11301A07501640141E050E0B801C1010E945300AF
S11301B081149104A104B10479F080E090E0DC01A1
S11301C02AE12A95F1F700C00396A11DB11D8C15F3
S11301D09D05AE05BF05A0F340E050E0B801C101A4
S11301E00E945300C114D104E104F10479F080E0C9
S11301F090E0DC012AE12A95F1F700C00396A11DE5
S1130200B11D8C159D05AE05BF05A0F32196CE0149
S11302100D2E000CAA0BBB0B84159505A605B7057E
S11302200CF260E573EC80E090E00E947F0060E5F2
S113023073EC80E090E00E947F00DF91CF911F91EA
S11302400F91FF90EF90DF90CF90BF90AF909F9071
S11302508F907F906F905F904F903F902F90089574
S1130260EF92FF920F931F93CF93DF93CDB7DEB737
S1130270C05BD1090FB6F894DEBF0FBECDBF28E531
S1130280E6E0F1E0DE01119601900D922A95E1F786
S113029028E5EEE5F1E0DE01A75ABF4F01900D928B
S11302A02A95E1F7FC0120813181121613064CF5E1
S11302B0BE016F5F7F4FDE01A75ABF4F40E050E0A1
S11302C09A01220F331FFB0101911191BF01FC011F
S11302D0E280F380F701E20FF31F11830083ED90B6
S11302E0FD90FC0104811581200F311FF901F18279
S11302F0E0824F5F5F4FFC01208131814217530739
S1130300FCF2C055DF4F0FB6F894DEBF0FBECDBF71
S1130310DF91CF911F910F91FF90EF900895CF93AC
S1130320DF9300D000D000D0CDB7DEB78CE290E0F0
S11303309A83898362E070E00E949E029C838B838F
S113034062E070E08CE290E00E949E029E838D83C6
S1130350CE0101960E94300182E084B989819A819C
S1130360181619060CF05EC0A12CB12C0F2EF8EE55
S11303708F2EF3E09F2EF02DED81FE819501220F4B
S1130380331FE20FF31F60817181C4010E941B02BD
S11303908B819C81FC01E20FF31F80819181009786
S11303A039F4072E000C880B990B0E94700013C0BF
S11303B0AB01770F660B770B0F2EF3E0CF2ED12C0A
S11303C0F02D0F2EF5E0EF2EF12CF02D01E010E0D2
S11303D020E00E9494008FEFA81AB80A89819A81BC
S11303E0A816B9064CF218161906E4F400E010E059
S11303F05801AA0CBB1CEB81FC81EA0DFB1D80811A
S113040091810E945203ED81FE81EA0DFB1D8081E2
S113041091810E9452030F5F1F4F89819A810817AF
S1130420190734F38B819C810E9452038D819E8134
S11304300E945203FFCF97FB072E16F4009407D0B7
S113044077FD09D00E94590207FC05D03EF490952F
S113045081959F4F0895709561957F4F0895052E5E
S113046097FB1EF400940E94460257FD07D00E9499
S11304706D0207FC03D04EF40C944602509540954F
S1130480309521953F4F4F4F5F4F0895909580953C
S1130490709561957F4F8F4F9F4F08950E948F02F3
S11304A0A59F900DB49F900DA49F800D911D1124C4
S11304B00895AA1BBB1B51E107C0AA1FBB1FA617A7
S11304C0B70710F0A61BB70B881F991F5A95A9F7F9
S11304D080959095BC01CD010895A1E21A2EAA1B26
S11304E0BB1BFD010DC0AA1FBB1FEE1FFF1FA217E0
S11304F0B307E407F50720F0A21BB30BE40BF50BDD
S1130500661F771F881F991F1A9469F76095709565
S1130510809590959B01AC01BD01CF010895A29FE8
S1130520B001B39FC001A39F700D811D1124911DC3
S1130530B29F700D811D1124911D08950F931F9377
S1130540CF93DF93869F8001879F100D969F100D98
S11305501124C8010E94BA02EC01009729F0A801F5
S113056060E070E00E94DB03CE01DF91CF911F9128
S11305700F9108950F931F93CF93DF9382309105CA
S113058010F482E090E0E091B801F091B90120E02C
S113059030E0A0E0B0E0309719F140815181028150
S11305A0138148175907C8F08417950769F4109701
S11305B031F012960C93129713961C9327C0009354
S11305C0B8011093B90122C02115310519F0421761
S11305D0530718F49A01BD01EF01DF01F801DBCFE5
S11305E021153105F9F0281B390B2430310580F42D
S11305F08A819B816115710521F0FB0193838283BC
S113060004C09093B9018093B801FE01329644C0AE
S1130610FE01E20FF31F8193919322503109398334
S113062028833AC02091B6013091B701232B41F4BD
S113063020910201309103013093B7012093B60158
S113064020910001309101012115310541F42DB7AC
S11306503EB74091040150910501241B350BE091F4
S1130660B601F091B701E217F307A0F42E1B3F0B7C
S11306702817390778F0AC014E5F5F4F2417350710
S113068048F04E0F5F1F5093B7014093B60181931A
S1130690919302C0E0E0F0E0CF01DF91CF911F9190
S11306A00F910895CF93DF93009709F481C0FC0163
S11306B0329713821282A091B801B091B9011097B8
S11306C081F420813181820F931F2091B6013091F2
S11306D0B7012817390751F5F093B701E093B60134
S11306E067C0ED0120E030E0CE17DF0740F44A8117
S11306F05B819E0141155105F1F0EA01F5CFD383E9
S1130700C28340815181840F951FC817D90759F4BA
S113071088819981840F951F0296918380838A81B1
S11307209B81938382832115310529F4F093B901C8
S1130730E093B8013DC0E901FB83EA8349915991F3
S1130740C40FD51FEC17FD0761F480819181840FDC
S1130750951F0296E90199838883828193819B8303
S11307608A83E0E0F0E012968D919C9113970097B4
S113077019F0FD01DC01F7CF8D919C9111979D013A
S11307802E5F3F4F820F931F2091B6013091B70126
S11307902817390769F4309729F41092B901109297
S11307A0B80102C013821282B093B701A093B601BC
S11307B0DF91CF910895DC0101C06D934150504009
S10B07C0E0F70895F894FFCF5F
S11307C80000BA01200026014A014A014A014A01EF
S11307D84A014A014A014A014A014A014A014A01B5
S11307E84A014A0126014A0126014A01B801880141
S11307F8880126014A014A014A0126014A012601C3
S11308084A014A014A012601260126012601260138
S113081806018300830041004100060126011000FF
S11308281000100010000800100010000800080054
S11308381000100010001000080010001000100034
S11308481000080008000800100010000800080044
S11308581000100008000800080008000400100038
S1130868100008000800100008001000100008001C
S10908780800100010004E
S9030000FC
