:100000000C9434000C9451000C9451000C94510049
:100010000C9451000C9451000C9451000C9451001C
:100020000C9451000C9451000C9451000C9451000C
:100030000C9451000C9451000C9451000C945100FC
:100040000C9451000C9451000C9451000C945100EC
:100050000C9451000C9451000C9451000C945100DC
:100060000C9451000C94510011241FBECFEFD8E026
:10007000DEBFCDBF11E0A0E0B1E0E4E0F2E002C0FD
:1000800005900D92A030B107D9F721E0A0E0B1E0D2
:1000900001C01D92A636B207E1F70E94D0000C9471
:1000A00000010C94000084B1876084B908952A9AF5
:1000B0002A980895299A81E0982F9A95F1F729981E
:1000C0008A95F1F708950F931F93CF93DF938C01D7
:1000D000C0E0D0E0CC30D1054CF4F80180819181B2
:1000E000892B11F4289A03C0289801C028980E94EF
:1000F000570021960E5F1F4FC031D10559F7DF9190
:10010000CF911F910F910895DC01EEE1F1E08D9107
:100110009C9111979183808312968D919C91139756
:100120009383828314968D919C91159795838483F4
:1001300016968D919C9117979783868318968D912B
:100140009C911997918780871A968D919C911B9706
:10015000938782871C968D919C911D9795878487A4
:100160001E968D919C911F979787868750968D91AB
:100170009C915197918B808B52968D919C91539726
:10018000938B828B54968D919C915597958B848BF4
:1001900056968D919C915797978B868BCF0108959A
:1001A0000E945300E6E0F1E01182108281E090E0CD
:1001B00093838283958384839783868311861086B5
:1001C000938782879587848797878687118A108A85
:1001D000138A128A958B848B178A168A86E091E09F
:1001E0000E9484000E9463000E945A002FEF81EE5B
:1001F00094E0215080409040E1F700C00000EECF35
:04020000F894FFCFA0
:00000001FF
