:100000000C9434000C9451000C9451000C94510049
:100010000C9451000C9451000C9451000C9451001C
:100020000C9451000C9451000C9451000C9451000C
:100030000C9451000C9451000C9451000C945100FC
:100040000C9451000C9451000C9451000C945100EC
:100050000C9451000C9451000C9451000C945100DC
:100060000C9451000C94510011241FBECFEFD8E026
:10007000DEBFCDBF11E0A0E0B1E0E0E2F1E002C000
:1000800005900D92A030B107D9F721E0A0E0B1E0D2
:1000900001C01D92A030B207E1F70E9477000C94D6
:1000A0008E000C94000084B1876084B908952A9A68
:1000B0002A980895299A81E0982F9A95F1F729981E
:1000C0008A95F1F708951F93CF93DF93182FC8E017
:1000D000D0E0112314F4289A01C028980E945700F8
:1000E000110F2197B1F7DF91CF911F9108950E94D1
:1000F0005300C0E0D0E08C2F0E9463008D2F0E943F
:1001000063000E945A002FEF81EE94E0215080405E
:100110009040E1F700C000002196EDCFF894FFCFAA
:00000001FF
