:100000000C9434000C9451000C9451000C94510049
:100010000C9451000C9451000C9451000C9451001C
:100020000C9451000C9451000C9451000C9451000C
:100030000C9451000C9451000C9451000C945100FC
:100040000C9451000C9451000C9451000C945100EC
:100050000C9451000C9451000C9451000C945100DC
:100060000C9451000C94510011241FBECFEFD8E026
:10007000DEBFCDBF11E0A0E0B1E0EAE4F3E002C0F2
:1000800005900D92A230B107D9F721E0A2E0B1E0CE
:1000900001C01D92A031B207E1F70E9470010C94DB
:1000A000A3010C9400008130910571F0823091051C
:1000B000A1F0892BD1F485B102C0440F551F6A9578
:1000C000E2F7482B45B9089588B102C0440F551F87
:1000D0006A95E2F7482B48B908958BB102C0440FE6
:1000E000551F6A95E2F7482B4BB9089596B181E008
:1000F0008927817090E0089586B1869591E08927DF
:10010000817090E0089586B18695869591E0892763
:10011000817090E0089586B186958695869591E0E8
:100120008927817090E0089586B182958F7091E063
:100130008927817090E00895CF93DF93EC010E94AE
:100140007600892B19F01982188228C00E947C0041
:10015000892B29F081E090E0998388831FC00E9459
:100160008300892B29F082E090E09983888316C070
:100170000E948B00892B29F083E090E0998388838B
:100180000DC00E949400892B29F084E090E09983AF
:10019000888304C085E090E099838883DF91CF91C4
:1001A0000895FC019C012A5F3F4F8191919181301C
:1001B000910541F08230910541F0892B41F485B1E0
:1001C00015B805C088B118B802C08BB11BB8E217CA
:1001D000F30759F70895CF92DF92EF92FF920F93B2
:1001E0001F93CF93DF93EC016B017A0189018FE3B9
:1001F0009FE10197F1F700C00000CE010E94D100FD
:100200006E817F81A601888199810E945300688553
:100210007985A7018A819B810E9453006A857B852D
:10022000A8018C819D810E945300DF91CF911F9185
:100230000F91FF90EF90DF90CF9008958091000193
:10024000909101018230910519F12CF4009751F041
:10025000019799F008958430910581F124F1059773
:10026000A1F1089521E030E040E050E061E070E06D
:1002700084E091E00E94EB00089521E030E041E04D
:1002800050E060E070E084E091E00E94EB000895AF
:1002900020E030E041E050E061E070E084E091E097
:1002A0000E94EB00089521E030E040E050E060E083
:1002B00070E084E091E00E94EB00089581E090E01E
:1002C0009093030180930201089520E030E040E024
:1002D00050E060E070E084E091E00E94EB0008955F
:1002E0008EE084B9E4E0F1E0118210821382128280
:1002F0001582148281E090E09783868382E090E00B
:100300009187808783E090E09387828787B117B8D1
:1003100080E091E00E949C00809102019091030195
:10032000009719F0019721F0F3CF0E941E01F0CF42
:1003300020E030E041E050E060E070E084E091E0F7
:0A0340000E94EB00E5CFF894FFCF18
:02034A000500AC
:00000001FF
