S0120000426174746C65736869702E7372656302
S11300000C9434000C943E000C943E000C943E007E
S11300100C943E000C943E000C943E000C943E0064
S11300200C943E000C943E000C943E000C943E0054
S11300300C943E000C943E000C943E000C943E0044
S11300400C943E000C943E000C943E000C943E0034
S11300500C943E000C943E000C943E000C943E0024
S11300600C943E000C943E0011241FBECFEFD8E048
S1130070DEBFCDBF0E94DC000C9450010C94000044
S113008089B18695869591E08927817090E00895DD
S113009089B182958F7091E08927817090E00895ED
S11300A089B182958695877091E08927817090E067
S11300B0089589B1829586958695837091E0892704
S11300C0817090E0089589B186958695869591E032
S11300D08927817090E00895FC019C012A5F3F4FBD
S11300E0819191918130910541F08230910541F0E7
S11300F0892B41F485B115B805C088B118B802C080
S11301008BB11BB8E217F30759F7089581309105B5
S113011071F082309105A1F0892BD1F485B102C030
S1130120440F551F6A95E2F7482B45B9089588B1E5
S113013002C0440F551F6A95E2F7482B48B9089549
S11301408BB102C0440F551F6A95E2F7482B4BB997
S11301500895CF92DF92EF92FF920F931F93CF9364
S1130160DF93EC016B017A0189018FE39FE1019731
S1130170F1F700C00000CE010E946C006E817F8107
S1130180A601888199810E94860068857985A701E6
S11301908A819B810E9486006A857B85A8018C8167
S11301A09D810E948600DF91CF911F910F91FF9056
S11301B0EF90DF90CF900895CF93DF93CDB7DEB764
S11301C02C970FB6F894DEBF0FBECDBF8EE084B976
S11301D01A8219821C821B821E821D8281E090E099
S11301E098878F8382E090E09A87898783E090E004
S11301F09C878B870E944000892B59F021E030E0D6
S113020040E050E061E070E0CE0101960E94A90058
S1130210F1CF0E944800892B59F021E030E041E001
S113022050E060E070E0CE0101960E94A900E2CFA8
S11302300E945000892B59F020E030E041E050E06A
S113024061E070E0CE0101960E94A900D3CF0E9424
S11302505900892B59F021E030E040E050E060E0A3
S113026070E0CE0101960E94A900C4CF0E946300F1
S1130270892B59F020E030E041E050E060E070E08C
S1130280CE0101960E94A900B5CF20E030E040E005
S113029050E060E070E0CE0101960E94A900AACF70
S10702A0F894FFCFFC
S9030000FC
